:020000040800F2
:10000000481E00205D060008610400086304000823
:10001000670400086B0400086F040008000000007B
:100020000000000000000000000000007304000851
:100030007504000800000000770400087904000837
:10004000770600087706000877060008770600089C
:10005000770600087706000877060008770600088C
:10006000770600087706000877060008770600087C
:10007000770600087706000877060008770600086C
:10008000770600087706000877060008770600085C
:100090005D4A0008770600087706000847650008F3
:1000A000770600087706000877060008770600083C
:1000B000B13D0008C93D0008E13D00087706000891
:1000C000770600087706000877060008770600081C
:1000D00077060008770600083B2900087706000825
:1000E00077060008770600087706000877060008FC
:1000F00077060008770600087706000877060008EC
:100100007706000877060008F93D00087706000822
:1001100077060008454500087706000877060008BE
:1001200077060008770600087706000877060008BB
:1001300000F002F800F05FF80AA090E8000C82449A
:100140008344AAF10107DA4501D100F054F8AFF277
:10015000090EBAE80F0013F0010F18BFFB1A43F0A5
:10016000010318479CF50000BCF500000A444FF05D
:10017000000C10F8013B13F0070408BF10F8014B06
:100180001D1108BF10F8015B641E05D010F8016B4B
:10019000641E01F8016BF9D113F0080F1EBF10F8AF
:1001A000014BAD1C0C1B09D16D1E58BF01F801CBD2
:1001B000FAD505E014F8016B01F8016B6D1EF9D555
:1001C0009142D6D37047000000230024002500266A
:1001D000103A28BF78C1FBD8520728BF30C148BFAA
:1001E0000B60704764290AF0B985002070471FB57D
:1001F0001FBD10B510BD0AF081FF1146FFF7F7FFD4
:1002000000F00EF80AF09FFF03B4FFF7F2FF03BC03
:1002100002F02CFB30BF72B662B680F308887047DC
:1002200008B502F0B9FA012002F0DCFD02F048FE48
:1002300002F078FE022002F0EBFC002141F61F40A4
:1002400003F094FB4FF4165002F02AFB4FF41650C3
:1002500004F0CDF84FF4165004F023F903F07CF9C4
:1002600003F032FC03F094FC03F0DCFC03F024FD0B
:1002700068484023802200210090084603F01DF9C1
:100280004FF47A7002F0C5FA4FF47A7002F0C1FAB6
:100290004FF47A7002F0BDFA5F48007828B900BFC9
:1002A00002F0E4FE0028FBD102E000205B49087068
:1002B00000205B4908604FF4FA7002F0AAFA03F0DC
:1002C000B3FD09F09CFB09F0AEFB002006230322DE
:1002D00002210090012004F06BF903F038FA514834
:1002E0000078012804D104F053FD04F043FF0CE032
:1002F0004C480078022802D103F092FA05E0494800
:100300000078032801D103F0DAFA04F021F8A520DF
:10031000454908705A2048717AE04248007801281F
:100320002FD1072004F039FE40490860082004F06E
:1003300034FE3F490860052004F02FFE3D49086067
:10034000062004F02AFE3C49086004F003FE3B4905
:10035000086008460068102803D10A21384802F0D6
:100360001EFC364800680E2803D10A21354802F0E9
:1003700016FC324800680D2803D10521324802F0EE
:100380000EFC2848007808B904F01FFC2F4890F9AB
:100390000000254948702E4890F900008870002020
:1003A000087101202B4908700EE01F4800791E4992
:1003B000284A1278895C084440B21B4908712548D4
:1003C0000078401C23490870224800780328ECDD9F
:1003D00000202149087013E013481F4A1278805604
:1003E00081B21E4802F010F900BF40211B4802F004
:1003F00079F90128F9D118480078401C164908708D
:10040000154800780628E7DB0AF0F8FA09F0D3FD72
:1004100083E7000000000020FE0E00206A0E00208E
:100420008C0E0020670E002010100020840F00208A
:10043000880F00208C0F0020900F0020940F0020C8
:10044000B305002087040020140E0020CA0E0020EF
:10045000CB0E00206C0E00206B0E002000500040E0
:10046000704700BFFEE700BFFEE700BFFEE700BF2A
:10047000FEE7704770477047704700000CB50020DA
:10048000019000906C48006840F480306A49086030
:1004900000BF6948006800F4003000900198401CDB
:1004A0000190009818B90198B0F5A06FF1D1624899
:1004B000006800F4003010B10120009001E000203D
:1004C00000900098012843D15C48006840F010007B
:1004D0005A4908600846006820F003000860084692
:1004E000006840F002000860534840685249486084
:1004F0000846406848600846406840F480604860AC
:100500000846406820F47C1048600846406840F483
:10051000E81048600846006840F08070086000BF3E
:100520004548006800F000700028F9D04248406853
:1005300020F00300404948600846406840F002004F
:10054000486000BF3C48406800F00C000828F9D122
:100550000CBD10B5FFF792FF10BD10B5364800680E
:1005600040F00100344908600846406834490840BA
:100570003149486008460068324908402E49086001
:100580000846006820F4802008600846406820F48F
:10059000FE0048604FF41F008860FFF7DAFF4FF05D
:1005A00000602949086010BD10B50021002000221C
:1005B000214B5B6803F00C0121B1042906D0082906
:1005C00028D107E0214B224C236027E01F4B204C11
:1005D000236023E0184B5B6803F47010164B5B68D4
:1005E00003F48032022303EB904022B9194B4343BA
:1005F000174C23600DE0104B5B6803F4003323B10C
:10060000144B4343124C236003E0104B4343104C04
:10061000236003E00D4B0E4C236000BF00BF064B70
:100620005B68C3F303130C4CE15C094B1B68CB40C4
:10063000074C236010BD0000001002400020024063
:100640000000FFF8FFFFF6FE08ED00E000127A0060
:10065000AC0F002000093D00B00F00200948804782
:1006600009480047FEE7FEE7FEE7FEE7FEE7FEE794
:10067000FEE7FEE7FEE7FEE704480549054A064BAC
:10068000704700005B050008310100084818002091
:10069000481E0020481A0020481A00203149014312
:1006A000314A1160704770B5002100230F22C478D1
:1006B00004B32D4C246804F4E064C4F5E064210A1A
:1006C000C1F10403CA40447804FA03F18478144069
:1006D00021430901254C0678A155047804F01F0533
:1006E0000124AC4005786D11AD0005F1E025C5F899
:1006F000004109E0047804F01F050124AC401C4DC2
:100700000678761145F8264070BD1A4A0A40024321
:10071000154B1B1F1A60704739B1134A121D12681E
:100720000243114B1B1D1A6006E00F4A121D12688E
:1007300082430D4B1B1D1A607047042808D14FF0EF
:10074000E021096941F004014FF0E022116107E066
:100750004FF0E021096921F004014FF0E02211611E
:10076000704700000000FA050CED00E000E400E036
:1007700080E100E080FFFF1F10B50446FA48844284
:1007800008D10121401500F0ABFE0021601500F0FA
:10079000A7FE17E0F548844208D10121001500F0BA
:1007A0009FFE0021201500F09BFE0BE0F0488442E4
:1007B00008D10121C80300F093FE00214FF400404E
:1007C00000F08EFE10BD30B50246002000235068B8
:1007D000E84C20400D790C6844EA05242043506021
:1007E0009068E54C2040D1E902542C434D7944EA0D
:1007F000450420439060D06A20F470000C7C641E95
:10080000E4B2234340EA0350D06230BD00210160CE
:10081000017141718160C16001210174704721B192
:10082000826842F00102826003E0826822F00102E5
:100830008260704721B1826842F48072826003E076
:10084000826822F480728260704710B50023CBB2B8
:100850001AB144681C43446002E044689C4344600D
:1008600010BD816841F00801816070470146002099
:100870008A6802F008020AB1012000E000207047F7
:10088000816841F0040181607047014600208A6858
:1008900002F004020AB1012000E00020704721B1FB
:1008A000826842F4A002826003E0826822F4A0021F
:1008B00082607047014600208A6802F480020AB113
:1008C000012000E00020704710B50A4600210023F7
:1008D000416821F46041531E41EA4331416010BD3B
:1008E00021B1426842F40062426003E0426822F4AF
:1008F000006242607047F0B504460D4600200021BA
:10090000092D11DDE068A5F10A0606EB460707266A
:1009100006FA07F18843A5F10A0606EB460603FA34
:1009200006F10843E0600CE0206905EB4507072667
:1009300006FA07F1884305EB450603FA06F108437A
:100940002061072A0FDA606B561E06EB86071F260A
:1009500006FA07F18843561E06EB860605FA06F1ED
:100960000843606322E00D2A0FDA206BD61F06EBE6
:1009700086071F2606FA07F18843D61F06EB860670
:1009800005FA06F10843206310E0E06AA2F10D06C3
:1009900006EB86071F2606FA07F18843A2F10D062B
:1009A00006EB860605FA06F10843E062F0BD21B1C8
:1009B000826842F48012826003E0826822F480122E
:1009C000826070470146C86C80B2704766484C3000
:1009D0000068704721B1426842F48062426003E0DF
:1009E000426822F480624260704721B1426842F45A
:1009F0008052426003E0426822F4805242607047B5
:100A00000A460021816821F4E0411143816070476A
:100A100021B1826842F40042826003E0826822F4DD
:100A200000428260704721B1826842F40212826003
:100A300003E0826822F402128260704701460020BF
:100A40008A6802F400120AB1012000E00020704719
:100A5000F0B504461546002000220026092911DDC4
:100A6000E068A1F10A0707EB470C072707FA0CF229
:100A70009043A1F10A0707EB470703FA07F2104377
:100A8000E0600CE0206901EB410C072707FA0CF24B
:100A9000904301EB410703FA07F210432061A06B7A
:100AA000C0F30156EF1C06F1010CA7EB0C0707EB96
:100AB000870C1F2707FA0CF29043EF1C06F1010C7C
:100AC000A7EB0C0707EB870701FA07F21043A063B7
:100AD000F0BD10B50A4600210023816B21F44011BE
:100AE000531E41EA0351816310BD08B500230093F2
:100AF0000090009B0B440093009B1A6008BD08B552
:100B0000024600200090009201F12800009B18444A
:100B100000900098006880B208BD0A460021416834
:100B2000164B194011434160704741628262704721
:100B30000A460021416821F01F01114341607047BE
:100B400040B109490831096841F40001064A0832F8
:100B5000116007E004490831096821F40001024AE4
:100B60000832116070470000002401400028014055
:100B7000003C0140FFFEF0FFFDF7F1FFFFFD3FFFEE
:100B80000246002013680B400BB1012000E000205A
:100B90007047CA430260704770B5024600200023C8
:100BA00000240B125568CEB205EA060415681D40F4
:100BB00015B10CB1012000E0002070BD00220A1226
:100BC000D34303607047000010B5012000F0A2FC81
:100BD000002000F09FFC10BD2A4908607047294999
:100BE000091F086070472749843108607047014633
:100BF0000020254A10884FF67F4210400843224AC1
:100C000010807047014600201F4A10884FF68072FE
:100C1000104008431C4A1080704708B5002200921B
:100C2000194A2C3A0092009A02440092009A1160EC
:100C300008BD08B501460020009013482C380090EC
:100C40000098084400900098008808BD0D489C302A
:100C50000068C0B270470C480830008840F00100BE
:100C600009490831088070470648A0300068C0B2C2
:100C7000704705480830008840F0020002490831FA
:100C80000880704704860D422C6C004000204449C7
:100C90000860091D0860091D0860091D08604148B9
:100CA0003F4914310860704700213D498279002A8C
:100CB0003AD00A46126803689A430B461A600A1D26
:100CC000126803689A430B1D1A60027911440A687E
:100CD00003681A430A60324A0832126803689A436A
:100CE0002F4B08331A601A1D126803689A432C4B65
:100CF0000C331A604279102A0ED11A1F1268036849
:100D00001A43274B08331A601A1D126803681A43E6
:100D1000234B0C331A600DE02149427911440A68D3
:100D200003681A430A6005E0027911440A680368FF
:100D30009A430A6070470021016001710C214171E2
:100D40000021817170471649103109680143144A26
:100D500010321160704701460020114A14321268A7
:100D60000A400AB1012000E0002070470C4914310C
:100D700008607047014600200022094B1B6803EA07
:100D80000102074B14331B680B4013B10AB1012059
:100D900000E00020704702491431086070470000ED
:100DA00000040140FFFF0F0010B50446CC48844208
:100DB00008D10121042000F093FB0021042000F061
:100DC0008FFB46E0C748844208D10121082000F08B
:100DD00087FB0021082000F083FB3AE0C2488442F0
:100DE00008D10121102000F07BFB0021102000F031
:100DF00077FB2EE0BD48844208D10121202000F07D
:100E00006FFB0021202000F06BFB22E0B8488442F9
:100E100008D10121402000F063FB0021402000F0B8
:100E20005FFB16E0B348844208D10121802000F026
:100E300057FB0021802000F053FB0AE0AE488442BB
:100E400007D10121801500F04BFB0021A01500F017
:100E500047FB10BD10B50121084600F041FB002101
:100E6000012000F03DFB10BD2DE9F04102460025B8
:100E70000026002000230024002791F803C00CF076
:100E80000F0591F803C00CF0100CBCF1000F03D05B
:100E900091F802C04CEA050591F800C0BCF1000FC2
:100EA00031D0146800202BE04FF0010C0CFA00F355
:100EB000B1F800C00CEA03069E4220D183004FF037
:100EC0000F0C0CFA03F7BC4305FA03FC4CEA0404CC
:100ED00091F803C0BCF1280F06D14FF0010C0CFAB9
:100EE00000FCC2F814C00AE091F803C0BCF1480F3E
:100EF00005D14FF0010C0CFA00FCC2F810C0401CE8
:100F00000828D1D31460B1F800C0BCF1FF0F34DD64
:100F1000546800202EE000F1080C4FF0010808FA98
:100F20000CF3B1F800C00CEA03069E4221D1830005
:100F30004FF00F0C0CFA03F7BC4305FA03FC4CEA24
:100F4000040491F803C0BCF1280F05D100F1080C8E
:100F500008FA0CF8C2F8148091F803C0BCF1480FED
:100F600007D100F1080C4FF0010808FA0CF8C2F89C
:100F70001080401C0828CED35460BDE8F0814FF6A5
:100F8000FF710180022181700421C1707047024607
:100F9000002093680B400BB1012000E00020704757
:100FA0000146886880B2704702460020D3680B4033
:100FB0000BB1012000E0002070470146C86880B2F4
:100FC000704701617047416170470AB1016100E0FB
:100FD00041617047C16070474FF480320A438261BB
:100FE0008161826182698269704702460020434BB9
:100FF00018684FF68073184040EA021008433F4BD0
:10100000186070473E49C8617047F0B50A46002332
:1010100000240021002500F00046B6F1004F02D167
:10102000364EF16901E0354E7168C0F3034583B275
:1010300000F44016B6F5401F08D121F070612F4E24
:10104000766826F070662D4F7E6012E000F4801600
:10105000B6F5801F06D1032606FA05F4A14341F038
:10106000706106E0460D360103FA06F6B14341F021
:10107000706122B1460D360103FA06F6314300F0E5
:101080000046B6F1004F02D11C4EF16101E01B4E4B
:101090007160F0BD30B500228B071C0F0F2303FADF
:1010A00004F2164B08338C1053F824309343134C3E
:1010B00008348D1044F8253023468C1053F8243022
:1010C0008C07240F00FA04F423430C4C08348D10D1
:1010D00044F8253030BD0A49DC3108607047000013
:1010E00000080140000C01400010014000140140C4
:1010F00000180140001C0140002001400000014098
:101100000000204210B50121080700F0F6F9002187
:101110004FF0805000F0F1F910BD2A490862704785
:1011200028490861704701460020274A106820F0CE
:10113000E0000843106070472249A0310860704702
:1011400010B502460020204B186820F00300104321
:1011500018601E4B1B6843F004031C4C23600129DC
:1011600001D130BF00E020BF184B1B6823F00403FF
:10117000164C236010BD1448006840F0040012496A
:1011800008600846006840F0020008600F480068E8
:1011900040F004000D49086000BF00BF30BF704739
:1011A00001460020084A52680A400AB1012000E0C6
:1011B000002070470449096841EA8001024A116031
:1011C0007047000000000E420070004010ED00E08B
:1011D000DF48006840F00100DD49086008464068CB
:1011E000DC490840DA49486008460068DA490840A6
:1011F000D74908600846006820F480200860084647
:10120000406820F4FE0048604FF41F00886070477B
:10121000CF49096821F48031CD4A1160114609682F
:1012200021F480211160B0F5803F03D0B0F5802F0C
:101230000ED106E0C649096841F48031C44A116004
:1012400007E0C349096841F4A021C14A116000E0E8
:1012500000BF00BF704710B50146002200230020E8
:101260004A11012A02D1BA4C236806E0022A02D1AF
:10127000B74C236A01E0B64C636A01F01F020124F7
:1012800094401C400CB1012000E0002010BD38B596
:10129000002000900024002500BF3120FFF7DBFF75
:1012A00005460098401C00900098B0F5A06F01D052
:1012B000002DF2D03120FFF7CEFF08B1012400E06D
:1012C0000024204638BD01460020A14A106820F0C5
:1012D000F80040EAC10010607047A04908607047FC
:1012E000024600209A4B586820F47C1042EA010321
:1012F0001843974B586070479849086670470146F5
:101300000020934A506820F0030008435060704763
:101310008F48406800F00C007047014600208C4A5E
:10132000506820F0F00008435060704701460020EC
:10133000874A506820F4E0600843506070470146D7
:101340000020834A506820F4605040EAC100506099
:10135000704729B17E4A527A02437D4B5A7204E0AB
:101360007B4A527A82437A4B5A7270477B49D83112
:101370000860704701460020754A506820F44040DC
:101380000843506070470021714A20321170704A42
:1013900082F82010012802D004280AD104E001219B
:1013A0006B4A2032117005E00521694A2032117024
:1013B00000E000BF00BF704769490860704764499A
:1013C000096A0143624A11627047654944390860FD
:1013D000704730B500210022002400235C4D6D6869
:1013E00005F00C0121B1042905D0082923D105E01D
:1013F0005C4D056022E05B4D05601FE0544D6D685B
:1014000005F47012524D6D6805F48034022505EB29
:1014100092421CB9544D554305600BE04C4D6D682C
:1014200005F400351DB1504D5543056002E04D4DAA
:101430005543056002E04B4D056000BF00BF444DC1
:101440006D6805F0F0010909484D6B5C0568DD40E9
:1014500045603F4D6D6805F4E061090A434D6B5CE2
:101460004568DD4085603A4D6D6805F46051C90AF4
:101470003E4D6B5C4568DD40C560354D6D6805F4DB
:101480004041890B3A4D6B5CC568B5FBF3F50561CE
:1014900030BD29B12E4A526902432D4B5A6104E0F6
:1014A0002B4A526982432A4B5A61704729B1284A14
:1014B00092690243264B9A6104E0254A926982436D
:1014C000234B9A61704729B1214AD2690243204BCC
:1014D000DA6104E01E4AD26982431D4BDA6170472B
:1014E00029B11B4AD2680243194BDA6004E0184A5A
:1014F000D2688243164BDA60704729B1144A1269E8
:101500000243134B1A6104E0114A12698243104BE3
:101510001A61704712494039086070470F49C86422
:1015200070470B49C87170470948406A40F08070A5
:1015300007494862704701460020054A92680A4000
:101540000AB1012000E0002070470149887270470D
:10155000001002400000FFF8FFFFF6FE00004242CC
:101560008004424200127A0000093D00C00F0020B2
:10157000D00F002010B50446FE48844208D1012156
:10158000C014FFF7ADFF0021E014FFF7A9FFC4E08E
:10159000B4F1804F08D101210846FFF7AEFF0021CA
:1015A0000120FFF7AAFFB8E0F348844208D10121E7
:1015B0000220FFF7A2FF00210220FFF79EFFACE010
:1015C000EE48844208D101210420FFF796FF002154
:1015D0000420FFF792FFA0E0E948844208D10121EE
:1015E0000820FFF78AFF00210820FFF786FF94E01C
:1015F000E448844208D101211020FFF77EFF00213A
:101600001020FFF77AFF88E0DF48844208D10121EB
:101610002020FFF772FF00212020FFF76EFF7CE003
:10162000DA48844208D101214014FFF759FF002114
:101630006014FFF755FF70E0D548844209D10121BD
:10164000C804FFF74DFF00214FF40020FFF748FFCB
:1016500063E0D048844209D101210805FFF740FF2B
:1016600000214FF48010FFF73BFF56E0CA48844248
:1016700009D101214805FFF733FF00214FF4001085
:10168000FFF72EFF49E0C548844208D101214020E0
:10169000FFF733FF00214020FFF72FFF3DE0C04858
:1016A000844208D101218020FFF727FF00218020FC
:1016B000FFF723FF31E0BB48844208D101218015A8
:1016C000FFF71BFF0021A015FFF717FF25E0B64825
:1016D000844209D101210804FFF702FF00214FF4E1
:1016E0008030FFF7FDFE18E0B048844209D10121A7
:1016F0004804FFF7F5FE00214FF40030FFF7F0FE3D
:101700000BE0AB48844208D101218804FFF7E8FED2
:1017100000214FF48020FFF7E3FE10BD0022028875
:10172000944B98420ED0994B98420BD0B0F1804F19
:1017300008D0914B984205D0904B984202D0904BE4
:10174000984204D14FF68F731A404B881A438D4B41
:10175000984207D08C4B984204D04FF6FF431A4072
:10176000CB881A4302808B8883850B880385814B45
:1017700098420BD0854B984208D08B4B984205D0AD
:101780008A4B984202D08A4B984201D10B7A038649
:1017900001238382704770B5002400220023058C4A
:1017A0004FF6FE7635400584028C8388048B4FF615
:1017B0008F752C40B51E2C400D882C43751E2A4079
:1017C0000D892A434D882A436A4DA8420BD06F4D9C
:1017D000A84208D0744DA84205D0744DA84202D04A
:1017E000734DA84213D14FF6F7752A404D892A430D
:1017F0004FF6FB752A408D882A434FF6FF652B4034
:101800004FF6FF552B408D892B43CD892B43838089
:101810000483CD888586028470BD70B500240022C3
:101820000023058C4FF6EF7635400584028C8388C3
:10183000048B48F6FF752C404FF6FF452C400D8871
:101840004FF6FF7606EA05252C434FF6DF752A4052
:101850000D8906EA05152A434D8806EA05152A432F
:10186000444DA84202D0494DA8421DD14FF67F7584
:101870002A404D894FF6FF7606EA05152A434FF6B2
:10188000BF752A408D8806EA05152A434FF6FF35B5
:101890002B404FF2FF752B408D8906EA85052B43BF
:1018A000CD8906EA85052B4383800483CD8805878F
:1018B000028470BD70B5002400220023058C4FF611
:1018C000FF6635400584028C8388848B4FF68F75C4
:1018D0002C404FF6FC752C400D882C434FF6FF55DD
:1018E0002A400D894FF6FF7606EA05252A434D88E2
:1018F00006EA05252A431F4DA84202D0234DA842DF
:101900001DD14FF2FF752A404D894FF6FF7606EA4A
:1019100005252A434FF6FF352A408D8806EA05251E
:101920002A434EF6FF752B404DF6FF752B408D89EF
:1019300006EA05152B43CD8906EA05152B4383805E
:101940008483CD888587028470BD70B50022002312
:101950000024058C4EF6FF7635400584038C848880
:10196000828B48F6FF752A404FF6FF452A400D88C6
:1019700020E00000002C014000040040000800406E
:10198000000C0040001000400014004000340140F2
:10199000004C01400050014000540140001800403C
:1019A000001C004000200040004001400044014075
:1019B000004801404FF6FF7606EA05252A434DF61A
:1019C000FF752B400D8906EA05352B434D8806EA45
:1019D00005352B43FA4DA84202D0FA4DA84208D152
:1019E0004BF6FF752C408D894FF6FF7606EA85157C
:1019F0002C4384808283CD88A0F84050038470BD3E
:101A0000828B4FF2FF331A408283828B4FF6FF7333
:101A100003EA01231A4382837047F0B50C4615464A
:101A2000002200210026078C4EF6FF7C07EA0C07F7
:101A30000784828B018C4FF6FF7707EA043640F665
:101A4000FF473A404FF6FF7707EA05273A434FF63C
:101A5000FF7707EA03373A43D94FB8420ED0D94F40
:101A6000B8420BD0B0F1804F08D0D74FB84205D064
:101A7000D64FB84202D0D64FB84206D14DF6FF77C6
:101A8000394046F48057394305E047F6FF5739405F
:101A900044F48057394382830184F0BD828B4FF632
:101AA000F3731A408283828B0A4382837047F0B5B6
:101AB0000C461546002200210026078C4FF6FF6CCD
:101AC00007EA0C070784828B018C4FF6FF7707EA41
:101AD00004264FF60C773A404FF6FF7707EA0317D4
:101AE0002F433A43B64FB8420ED0B64FB8420BD050
:101AF000B0F1804F08D0B44FB84205D0B34FB842D0
:101B000002D0B34FB84206D14FF6FF57394046F4E2
:101B10008077394305E04FF2FF57394044F480772E
:101B2000394382830184F0BD028B4FF2FF331A40A8
:101B30000283028B4FF6FF7303EA01231A430283E9
:101B40007047F0B50C461546002200210026078C90
:101B50004FF6EF7C07EA0C070784028B018C4FF6E7
:101B6000FF7707EA041640F6FF473A404FF6FF7743
:101B700007EA03373A434FF6FF7707EA05273A4368
:101B80008F4FB8420ED08F4FB8420BD0B0F1804F7C
:101B900008D08D4FB84205D08C4FB84202D08C4F40
:101BA000B84206D14FF6DF77394046F01007394387
:101BB00005E04FF65F77394044F010073943028360
:101BC0000184F0BD028B4FF6F3731A400283028B3F
:101BD0000A4302837047F0B50C46154600220021E7
:101BE000068C4FF6FE773E400684028B018C4FF642
:101BF0000C7632407E1C06EA03162E433243704EAA
:101C0000B0420ED06F4EB0420BD0B0F1804F08D032
:101C10006D4EB04205D06D4EB04202D06C4EB04217
:101C200006D14FF6FD76314044F00106314305E020
:101C30004FF6F576314044F00106314302830184CA
:101C4000F0BD70B505460C465D4885420ED05D4836
:101C500085420BD0B5F1804F08D05B48854205D056
:101C60005A48854202D05A48854200D100E000BF60
:101C7000208850B92389A28861882846FFF7ABFFE6
:101C8000E1882846FFF79EFF25E0208804280AD136
:101C90002389A28861882846FFF753FFE1882846F8
:101CA000FFF742FF17E0208808280AD12389A2887D
:101CB00061882846FFF7FBFEE1882846FFF7EEFE25
:101CC00009E02389A28861882846FFF7A6FEE188FB
:101CD0002846FFF795FE70BD2DE9F04105460C46FC
:101CE00000260127608808B9022600E00026A088A7
:101CF000012801D1022700E001272088A0B923890B
:101D0000A28861882846FFF766FFE1882846FFF72A
:101D100059FF23893A4631462846FFF712FFE188EA
:101D20002846FFF701FF13E02389A288618828462F
:101D3000FFF707FFE1882846FFF7F6FE23893A46BA
:101D400031462846FFF747FFE1882846FFF73AFF6C
:101D5000BDE8F0810A884B881A438B881A43CB88E8
:101D60001A430B891A434B891A438B891A43A0F8EB
:101D7000442070474FF6FF71818000210180C180AF
:101D80004180017270470021018041808180C180C3
:101D9000018141818181C1817047002101804180A1
:101DA000012181800021C1800181704700210180D3
:101DB00041808180C1800181418181817047000023
:101DC000002C0140003401400004004000080040A5
:101DD000000C004021B1028842F00102028004E0C0
:101DE00002884FF6FE731A400280704731B1B0F896
:101DF000442042F40042A0F8442005E0B0F844201A
:101E0000C2F30E02A0F8442070471AB183890B4335
:101E1000838102E083898B4383817047818270478D
:101E200041EA0203A0F8483070471AB183890B4396
:101E3000838102E083898B438381704701894FF658
:101E4000F8721140018170470A46002101894FF65E
:101E50008F73194011430181704730B504460D4618
:101E600029462046FFF7F0FF208940F00700208137
:101E700030BD2DE9F04104460D4616461F46602D43
:101E800006D13B46012231462046FFF75AFE05E0C7
:101E90003B46012231462046FFF79DFE294620465B
:101EA000FFF7D2FF208940F007002081BDE8F081D4
:101EB00030B50C4600210189C9B24FF6FF7505EA1D
:101EC0000325154325432943018130BD2DE9F04108
:101ED00005460E4617469846002443463A46314684
:101EE0002846FFF7E5FF2C894FF6F870044044F0D0
:101EF00007044FF68F70044044F070042C81BDE855
:101F0000F081F0B504460D4616461F463B46324664
:101F100029462046FFF7CCFF208940F480402081ED
:101F2000F0BD0185828270470A46002101884FF684
:101F30008F731940114301807047F0B50C46154668
:101F40001E460021002200230189028B038C4FF6DC
:101F5000F877394021434FF6FC473A4040F20117E9
:101F60003A434FF6DD773B404FF6FF7707EA061717
:101F70002F433B43018102830384F0BD0A460021C5
:101F8000018B4FF68F7319401143018370470A4646
:101F90000021018B48F6FF7319404FF6FF7303EAE7
:101FA00002231943018370470A460021818B4FF6B3
:101FB0008F7319401143818370470A460021818B3A
:101FC00048F6FF7319404FF6FF7303EA02231943E3
:101FD0008183704721B1028842F08002028004E0D0
:101FE00002884FF67F731A400280704721B18288C1
:101FF00042F00402828004E082884FF6FB731A40AC
:102000008280704721B1828842F00802828004E019
:1020100082884FF6F7731A408280704721B1828818
:1020200042F00102828004E082884FF6FE731A407B
:10203000828070470A460021018B4FF6F7731940E2
:102040001143018370470A460021018B4FF2FF7351
:1020500019404FF6FF7303EA0223194301837047C7
:102060000A460021818B4FF6F77319401143818393
:1020700070470A460021818B4FF2FF7319404FF6DB
:10208000FF7303EA02231943818370470A46002144
:10209000018B4FF6FB7319401143018370470A46C9
:1020A0000021018B4FF6FF3319404FF6FF7303EA0F
:1020B00002231943018370470A460021818B4FF6A2
:1020C000FB7319401143818370470A460021818BBD
:1020D0004FF6FF3319404FF6FF7303EA022319430B
:1020E000818370470A460021018B4FF67F731940A8
:1020F0001143018370470A460021018BC1F30E0191
:102100004FF6FF7303EA02231943018370470A461F
:102110000021818B4FF67F731940114381837047F3
:102120000A460021818BC1F30E014FF6FF7303EACB
:1021300002231943818370470A460021018C4FF620
:10214000FD7319401143018470470A460021018C38
:102150004FF6F77319401143018470470A46002176
:10216000018C4FF6DF7319404FF6FF7303EA021339
:102170001943018470470A460021018C4FF67F7392
:1021800019404FF6FF7303EA0213194301847047A5
:102190000A460021018C4FF6FF5319404FF6FF739A
:1021A00003EA02231943018470470A460021018C87
:1021B0004FF2FF7319404FF6FF7303EA02231943EE
:1021C000018470470A460021018C4DF6FF731940C7
:1021D0004FF6FF7303EA023319430184704730B5A9
:1021E000002301248C40A3B2048C9C430484048CFF
:1021F00002FA01F5ADB22C43048430BD30B50023A2
:1022000004248C40A3B2048C9C430484048C02FA02
:1022100001F5ADB22C43048430BD70B503460020F7
:1022200000241846183001258D40ACB21D8CA54302
:102230001D8409B1082909D100EB6100056825F06A
:10224000700505600568154305600EE00D1FC5F3B8
:102250004E052844056825F4E045056005684FF6FD
:10226000FF7606EA02263543056070BD21B102887B
:1022700042F00202028004E002884FF6FD731A4029
:102280000280704721B1028842F00402028004E01B
:1022900002884FF6FB731A400280704721B1828892
:1022A00042F08002828004E082884FF67F731A40F9
:1022B0008280704702884FF6F7731A4002800288C6
:1022C0000A430280704782884FF68F731A408280DB
:1022D00082880A438280704702894FF6F8731A4059
:1022E000028102890A430281704702894FF67F7397
:1022F0001A40028102890A43028170478184704733
:102300008185704781867047018770478187704754
:10231000A0F84010704702884FF6FF431A40028031
:1023200002880A43028070470146888E7047014642
:10233000088F70470146888F70470146B1F840000A
:1023400070470146888C70470146088D70470246E9
:102350000020138A0B400BB1012000E000207047E1
:10236000CA430282704730B5024600200023002491
:10237000158A05EA0103958905EA010413B10CB138
:10238000012000E0002030BDCA43028270470000F7
:1023900010B50446FB48844209D101218803FFF7A8
:1023A0009FF800214FF48040FFF79AF832E0F6489A
:1023B000844209D101214804FFF79FF800214FF41E
:1023C0000030FFF79AF825E0F048844209D1012156
:1023D0008804FFF792F800214FF48020FFF78DF872
:1023E00018E0EB48844209D10121C804FFF785F8C1
:1023F00000214FF40020FFF780F80BE0E54884420D
:1024000008D101210805FFF778F800214FF480106A
:10241000FFF773F810BD2DE9F04786B005460E466C
:102420000024A24600BFA1460027B08900B100BF2A
:102430002F462C8A4CF6FF700440F08804432C820F
:10244000AC894EF6F3100440B08831890843718995
:1024500008430443AC81AC8A4FF6FF400440B08986
:102460000443AC8201A8FEF7B4FFC648874202D1FC
:10247000DDF810A001E0DDF80CA0A88900F4004010
:1024800040B10AEBCA0000EB0A1031684900B0FB0A
:10249000F1F807E00AEBCA0000EB0A103168890086
:1024A000B0FBF1F86420B8FBF0F0040120096421CE
:1024B00001FB1089A88900F4004040B1322000EBF4
:1024C000C900B0FBF1F000F00700044308E032203F
:1024D00000EB09106421B0FBF1F000F00F000443A1
:1024E0002C8106B0BDE8F0874FF416510160002141
:1024F0008180C18001810C2141810021818170474F
:1025000010B502460020108A4FF2FF0318400B88D6
:102510004C8823438C882343CC8823431843108260
:1025200010BD0021018041808180C180704721B1B0
:10253000828942F40052828104E082894DF6FF7361
:102540001A4082817047F0B503460024002600251A
:10255000002040F66A17B94200D100BF1846C1F307
:10256000421401F01F06012707FA06F5012C01D1DC
:102570000C3004E0022C01D1103000E014301AB10C
:1025800007682F43076002E00768AF430760F0BDAC
:102590001AB1838A0B43838202E0838A8B4383824E
:1025A0007047028A4FF6F0731A400282028A0A4389
:1025B0000282704782894FF2FF731A4082818289BA
:1025C0000A438281704721B1828942F002028281EE
:1025D00004E082894FF6FD731A4082817047028AB7
:1025E0004FF6DF731A400282028A0A430282704762
:1025F00021B1028A42F48042028204E0028A4BF650
:10260000FF731A4002827047C1F30802828070474C
:1026100001468888C0F308007047818941F00101B4
:1026200081817047028BD2B20283028B42EA01227F
:1026300002837047028B02F47F420283028B0A43BB
:102640000283704721B1828A42F02002828204E034
:10265000828A4FF6DF731A408282704721B1828AE4
:1026600042F01002828204E0828A4FF6EF731A4031
:102670008282704721B1828A42F00802828204E09D
:10268000828A4FF6F7731A408282704721B182899D
:1026900042F40042828103E08289C2F30E02828109
:1026A000704721B1828A42F40062828204E0828A09
:1026B0004FF2FF731A4082827047828A4FF6FB7393
:1026C0001A408282828A0A438282704721B1828ABA
:1026D00042F00202828204E0828A4FF6FD731A40C1
:1026E0008282704702460020B1F5007F00D100BF12
:1026F00013880B400BB1012000E00020704701F46B
:102700000072B2F5007F00D100BFCA43028070475B
:1027100070B50246002400230025002040F66A160A
:10272000B14200D100BFC1F3421501F01F030126E1
:1027300006FA03F3012D02D19689334006E0022DFB
:1027400002D1168A334001E0968A33400C120126EA
:1027500006FA04F41688344013B10CB1012000E0ED
:10276000002070BD10B50022002340F66A14A1427B
:1027700000D100BF0A1201249440A3B2DC430480BC
:1027800010BD0000003801400044004000480040F7
:10279000004C00400050004010B56FF00400FDF701
:1027A000CCFF2E4800682E49B0FBF1F02D4908708F
:1027B0000846007800EB4001C1EBC0104FF6FF71F6
:1027C00001EAC0002849088010BD0146254A127858
:1027D0004A434FF0E0235A6100229A611A46126977
:1027E00042F001021A6100BF4FF0E022106900F0D0
:1027F00001021AB100F48032002AF5D04FF0E02235
:10280000126922F001024FF0E0231A6100229A615E
:1028100070470146144A12884A434FF0E0235A6138
:1028200000229A611A46126942F001021A6100BF41
:102830004FF0E022106900F001021AB100F480327A
:10284000002AF5D04FF0E022126922F001024FF089
:10285000E0231A6100229A6170470000AC0F00204B
:1028600000127A00D40F0020D60F0020014600BFCE
:10287000704700BFD14A128802F04002002AF9D006
:10288000C2B2CE4B1B1D1A807047CC49091D08806F
:1028900000BFCA49098801F040010029F9D07047FA
:1028A00010B586B0044601210420FEF7FFFD01218A
:1028B0004804FEF708FE0420ADF8140003208DF84C
:1028C000160018208DF8170005A9BD48FEF7CCFAB0
:1028D0000820ADF8140004208DF8170005A9B848A9
:1028E000FEF7C2FA26208DF8000000208DF80100C6
:1028F00001208DF802008DF803006846FDF7D3FE35
:1029000001940020ADF80800ADF80A00ADF80C0005
:10291000ADF810000C20ADF80E0001A9A748FFF794
:102920007AFD012240F22551A448FFF70CFE012157
:10293000A248FFF7FCFD06B010BD2DE9FF5F40F295
:1029400025519E48FFF7E4FE00287DD09B48001DDE
:1029500000889C490860084600684B2803D1012084
:10296000994908700AE097480068492803D09548BB
:1029700000684A2802D100209349087092480078E4
:1029800088B990480068412809DB8E4800684828CB
:1029900005DC8C48007840388C49087033E0002012
:1029A0008A4908702FE08848007801282BD1854893
:1029B0000068432806D10020854908700120854918
:1029C00008700FE07F480068472806D10120804941
:1029D000087000207F49087004E000207C490870DE
:1029E0007C49087077480068412803D07548006822
:1029F000452805D17348007840387449087002E0D2
:102A00000020724908706F4800687B2802D10120BD
:102A1000714908706B4800687D2802D102206E4918
:102A200008706D48007801280AD1664800786B4923
:102A30006B4A127888546A480078401C68490870CC
:102A400065480078022800E07BE07AD16348C078CE
:102A5000502803D101206349087065E05F48407841
:102A6000232861D05E4800785F49087034E05C49F3
:102A700009785D4A1278881A0AF0DFF980464246E2
:102A80000B460020594909F001FA04460D46564903
:102A90000978491E514A515CA1F130000AF0CDF984
:102AA000064622462B460AF02FFA82468B465048AD
:102AB00000680AF039FD52465B46CDE9000109F095
:102AC00079FFCDE9020109F043FF49490860464812
:102AD0000078401E44490870434800780428C6DA4C
:102AE0003E484078303809281DD2DFE800F0050C58
:102AF00011161718191A1B003D4800680AF0A4FEA9
:102B00003C4908600FE03A4800683B4908600AE029
:102B1000374800683949086005E004E003E002E056
:102B200001E000E000BF00BF00202B4908702C49E5
:102B300008702D4908702E4908603221274808F096
:102B40007DF9BDE8FF9F2E480078F8B11D48006868
:102B50005A281BD000202A4A10701A480068012801
:102B600006DB18480068082802DC164801780BE0EC
:102B700014480068412807DB12480068482803DC35
:102B8000104800784038C1B2084670470D480068C8
:102B90005A2802D101201A4A10700020F5E770B5BA
:102BA00005460E46002400BF04E0285D01F006FC47
:102BB000601CC4B2B442F8DB70BD000000440040A9
:102BC00000080140DC0F0020690E0020660E002086
:102BD000640E0020650E0020E20F00200413002088
:102BE000E30F0020120F0020E40F0020000024401B
:102BF000E80F00207C0F0020B40E0020B80E00204B
:102C0000EC0F0020A34A0A400243A34B1A6070470E
:102C10000146072323EA010212029F4B1B1D18687D
:102C20004FF6FF0318409D4B184310439A4B1B1D52
:102C3000186070472DE9F0410746884614461D4646
:102C40002846FFF7E5FFC5F1040007FA00F60F205C
:102C5000284100EA0800064306F00F06E21704EBDD
:102C6000D2625211920002F1E022D2F800212146F4
:102C7000E31704EBD3635B11A4EB431C012303FABA
:102C80000CF31A432046E31704EBD3635B119B005C
:102C900003F1E023C3F800218148005D40EA0610FB
:102CA0007F490855BDE8F08170B504460B46CE1744
:102CB00001EB9676C6F38700CE1701EB9676B61039
:102CC000A1EB8606B606350E764B9B6943F00103F1
:102CD000744EB3614FEAB63353F820300F26AE403E
:102CE000B343714E46F82030334653F8203004FA8F
:102CF00005F61E436C4B43F820606C4B1B680126A5
:102D00008E403343694E336002F0010343B1674B99
:102D10000C331B6801268E403343644E0C363360FF
:102D200002F0020343B1614B08331E6801238B405C
:102D30001E435E4B08331E6070BD00B5002059492C
:102D40000861C8601420486100208861C861084695
:102D5000006840F001000860084640685449084097
:102D60005049486008460068524908404D4908608B
:102D70000846006820F4802008600846406820F477
:102D8000FE0048600020886000214FF00060FFF7DF
:102D900039FF00BD10B540480830006840F004001D
:102DA0003D49083108603F48C06940F080503D49C6
:102DB000C8614148406840F480703F494860084617
:102DC000006840F0040008600846006840F0020017
:102DD0000860FDF71FFA10BD3048001D2E49091D7F
:102DE00008607047014649062E4A926942F0010286
:102DF0002C4B9A612C4A083A526822F0E0622A4B26
:102E0000083B5A601A4652680A435A60704730B508
:102E100004460025FFF791FF2248006840F4803007
:102E20002049086000BF1F480068400C0028FAD005
:102E30004FF480601B494860A01EC4B20846406839
:102E400040EA844048600846406840F4803048606A
:102E50001A48006840F032001849086011480068BC
:102E600040F080700F49086000BF0E480068400EB7
:102E70000028FAD00B48406840F002000949486039
:102E800005E008484068C0F3870505F00305022DFA
:102E9000F7D130BD80FFFF1F08ED00E00000FA050C
:102EA00000E400E00010024008000140000401407E
:102EB0000000FFF8FFFFF6FE007000400020024017
:102EC00008B501210820FEF7F1FA4FF40050ADF8E3
:102ED000000010208DF8030003208DF802006946E1
:102EE0000C48FDF7C1FF08BD18B900210A4A11605E
:102EF0000FE00A490968491C084A1160814208D15B
:102F000005490968C943064AC2F8B4110021034AB9
:102F100011607047000C0140B4812142F00F002085
:102F20000080214208B501210820FEF7BFFA4FF4C6
:102F3000A040ADF8000048208DF80300694688489D
:102F4000FDF792FF08BD01468648006828B986480B
:102F50000088401C844A108002E00020824A1080D1
:102F60008048006828B98148007810B901207F4A5C
:102F700010707F480078B0B97C480078012807D1EC
:102F80007C480078401C7B4A10700120784A107001
:102F900078480078022806D10020764A1070764AD8
:102FA0001080022070476F480068012804D100207B
:102FB0006E4A10706E4A10706E48007801281CD15D
:102FC0006D480088401C6C4A10801046008888427A
:102FD0000ADD65480088884206DA0020654A1070DC
:102FE000654A10800120DDE75F480088884204DDE3
:102FF0000020604A1070604A10800020D2E75F48CD
:10300000007838B15748006820B900205B49087043
:103010000120704753480068012801D157490870C2
:103020000020F6E75648008840B94E48006828B9A5
:1030300054480088401C5349088002E00020514950
:10304000088050480088C82807DD01204C490880C6
:1030500000204C4908800120704749480088012819
:1030600002D10020464908800020F5E770B54FF4F2
:10307000827507F04DFD4449098808B2002801DB3C
:10308000014600E041420E46344640490968701A44
:10309000002801DB014600E0414229B93C480068B4
:1030A000401C3B49086002E0002039490860AC42FE
:1030B00005DC0020374908703749087037E0AC421A
:1030C00008DD6800A04205DB012032490870324962
:1030D00008702CE06800A0420ADA05EB4500A04227
:1030E00006DB02202B49087001202B4908701EE0E6
:1030F00005EB4500A04209DAA800A04206DB032048
:103100002449087001202449087010E0A800A0425A
:103110000ADA05EB8500A04206DB04201D49087091
:1031200001201D49087002E00020174908800D4861
:10313000006820B116480068B0F5167F02DD012056
:103140001649087015480078012804D100F093F85A
:103150000020134908700D4806601148007870BDC2
:10316000000C014038812142FA0F0020F40F0020AA
:10317000F50F0020F60F0020F80F0020FC0F0020B4
:1031800000100020FE0F0020240C0040041000203E
:1031900008100020670E00206A0E0020680E002034
:1031A0000210002010B50A461AB10123FE4C23601C
:1031B00002E00023FC4C2360002117E00023FA4CBE
:1031C000343C236000F0800323B10123F64C083423
:1031D000236003E00023F44C083423600123F24C05
:1031E000343C23604306180E4B1CD9B20829E5DB9A
:1031F0000123ED4C236010BD30B500241CE004F128
:10320000B001C8B20021FFF7CDFF00210846FFF74B
:10321000C9FF00211020FFF7C5FF002508E0E349A2
:1032200001EBC501085D0121FFF7BCFF681CC5B2B9
:10323000802DF4DB601CC4B2082CE0DB30BD00B58F
:1032400000218D20FFF7AEFF00211420FFF7AAFF19
:103250000021AF20FFF7A6FF00BD00B500218D20A3
:10326000FFF7A0FF00211020FFF79CFF0021AE20F8
:10327000FFF798FF00BD30B500240CE0002506E004
:103280000020CA4901EBC5010855681CC5B2802D54
:10329000F6DB601CC4B2082CF0DBFFF7ADFF30BDDD
:1032A000F0B5144600267F2801DC3F2900DDF0BD83
:1032B0000B46CF1701EB5777FF10C7F10707FAB29C
:1032C000CF1701EB5777FF10A1EBC707FDB2C5F190
:1032D00007070123BB40DEB24CB1B44B03EBC00384
:1032E0009B5C3343B14F07EBC007BB5408E0AF4BC7
:1032F00003EBC0039B5CB343AC4F07EBC007BB546D
:1033000000BFD4E72DE9F04F80460C4615461E4617
:10331000A346A5F12000C5B200273EE00C2E07D140
:1033200005EB4500A24901EB800010F8079004E08E
:10333000A04800EB051010F807904FF0000A26E0B7
:1033400009F0800028B121464046099AFFF7A8FFFE
:1033500009E0099808B9012000E000200246214652
:103360004046FFF79DFF4FEA49604FEA1069601C35
:10337000C4B2A4EB0B00B04205D15C4608F10100D9
:1033800000F0FF0806E00AF1010000F0FF0ABAF1C0
:10339000080FD5DB00BF781CC7B2B742BEDBBDE863
:1033A000F08F10B50246012000E050430B1EA1F142
:1033B0000104E1B2F9D110BD2DE9FF4F81B00746FC
:1033C00091461E460E9D4FF0000A002439E0301B46
:1033D000401EC1B20A20FFF7E4FFB9FBF0F00A215A
:1033E000B0FBF1F201FB1208BAF1000F16D1701E0A
:1033F000A04213DDB8F1000F0ED10120AB4605EB62
:10340000DB71491001FB04710090C8B22B462022E9
:103410000299FFF777FF12E04FF0010A0120AB4657
:1034200005EBDB71491001FB04710090C8B208F193
:103430003001CAB22B460299FFF764FF00BF601C3F
:10344000C4B2B442C3DB05B0BDE8F08F78B5054621
:103450000E46144618E07A2D03DD002506F1100013
:10346000C6B23A2E04DD002005460646FFF703FFEC
:103470000120009022780C2331462846FFF742FFB6
:1034800005F10800C5B2641C20780028E3D178BD9E
:1034900030B504460D4605F1B001C8B20021FFF772
:1034A00081FE102141EA14100021FFF77BFE04F099
:1034B0000F000021FFF776FE30BD2DE9F84F814661
:1034C0000C4692461D4600200090E11704EB517116
:1034D000C910A4EBC10131B92046E11704EB5171C9
:1034E000C1F3C70807E02046E11704EB5171C9108A
:1034F000491C01F0FF08E91705EB5171C910A5EB54
:10350000C10131B92846E91705EB5171C1F3C7076D
:1035100006E02846E91705EB5171C910491CCFB2E6
:10352000464615E031464846FFF7B2FFCB460BE072
:1035300000994A1C00920A9A505C0121FFF732FE62
:103540000BF1010000F0FF0BD345F1DB701CC6B29C
:10355000BE42E7DBBDE8F88F08B501211020FDF77A
:10356000A5FF01210846FDF7A1FF4EF20100ADF8CD
:10357000000010208DF8030002208DF8020069463B
:103580000D48FDF771FC0120FDF7C7FD0020FDF798
:10359000FAFE0020FDF723FB0020FDF7BEFD002012
:1035A0000149091D086009E0B401224236130020D8
:1035B0006ADD0008DEE10008001001406420FFF72A
:1035C00028F901203449C1F8B8010021AE20FFF7E5
:1035D000E9FD0021D520FFF7E5FD00215020FFF790
:1035E000E1FD0021A820FFF7DDFD00213F20FFF7CE
:1035F000D9FD0021D320FFF7D5FD00210846FFF7B4
:10360000D1FD00214020FFF7CDFD00218D20FFF7E7
:10361000C9FD00211420FFF7C5FD00212020FFF780
:10362000C1FD00210220FFF7BDFD0021A120FFF711
:10363000B9FD0021C020FFF7B5FD0021DA20FFF71A
:10364000B1FD00211220FFF7ADFD00218120FFF721
:10365000A9FD0021EF20FFF7A5FD0021D920FFF7EC
:10366000A1FD0021F120FFF79DFD0021DB20FFF7E8
:1036700099FD00213020FFF795FD0021A420FFF7E0
:1036800091FD0021A620FFF78DFD0021AF20FFF75F
:1036900089FDFFF7F0FD08BD00002242002000E098
:1036A000401C0A28FCDB704710B5044607230122A2
:1036B0002146A448FDF71FF90121A248FDF7EFF8C4
:1036C00000BF02219F48FDF75BFA0028F9D09D4812
:1036D000FDF778F910BD70B50024002501209A4946
:1036E000086000209949C1F88C01FFF7D7FF01203D
:1036F0009549091D086000209449C1F88801FFF729
:10370000CDFF01209049086000209049C1F88C014C
:10371000FFF7C4FF00BF17E000208B490860FFF7E8
:10372000BDFFFFF7BBFF0B20FFF7BEFF001188496D
:1037300021F81500681CC5B201208449C1F8880130
:10374000FFF7ACFF601CC4B2802CE5DB70BD00B598
:1037500087B001214FF40470FDF7A8FE4FF400403C
:10376000FDF708FE1020ADF8040000208DF80700DA
:1037700001A97848FDF778FB7248FCF7FDFF0020AF
:1037800002908DF80C008DF80D004FF4602004902D
:103790000020059001208DF8180002A96948FDF766
:1037A00012F801216748FDF73AF86648FDF759F825
:1037B00000BF6448FDF75AF80028FAD16148FDF7C8
:1037C0005FF800BF5F48FDF760F80028FAD107B046
:1037D00000BD2DE9F04F85B00E20FFF765FF019089
:1037E00009F042FB4FF066325B4BCDE9020109F074
:1037F0008BFB80460022594B09F086FB06460022CF
:10380000574B09F081FB04460022564B09F08EF914
:10381000824609F0E3FA0490049805B0BDE8F08F01
:1038200000B587B001214FF40470FDF73FFE4FF45F
:103830000040FDF79FFD0220ADF8040000208DF848
:10384000070001A94848FDF70FFB0C20ADF8040064
:1038500010208DF8070002208DF8060001A94248CB
:10386000FDF702FB3748FCF787FF002002908DF838
:103870000C008DF80D004FF460200490002005909E
:1038800001208DF8180002A92E48FCF79CFF0121A9
:103890002C48FCF7C4FF2B48FCF7E3FF00BF294886
:1038A000FCF7E4FF0028FAD12648FCF7E9FF00BF47
:1038B0002448FCF7EAFF0028FAD107B000BD00B5A4
:1038C00087B001214FF40470FDF7F0FD4FF4004084
:1038D000FDF750FD0E20ADF8040000208DF8070024
:1038E00001A92148FDF7C0FA1648FCF745FF002062
:1038F00002908DF80C008DF80D004FF460200490BC
:103900000020059001208DF8180002A90D48FCF751
:103910005AFF01210B48FCF782FF0A48FCF7A1FF80
:1039200000BF0848FCF7A2FF0028FAD10548FCF7C1
:10393000A7FF00BF0348FCF7A8FF0028FAD107B093
:1039400000BD000000240140880122420000224204
:1039500004110020000C014066660A400000264069
:10396000000059400000B0400010014030B589B05F
:1039700005460C460121C802FDF798FD01214803C8
:10398000FDF794FD01210420FDF790FD0121102099
:10399000FDF78CFD4FF47060ADF8200018208DF815
:1039A000230003208DF8220008A94348FDF75CFAA4
:1039B0004FF47070ADF8200018208DF8230003201C
:1039C0008DF8220008A93D48FDF74EFAADF81850D1
:1039D000ADF814400020ADF81A00ADF8160005A9A6
:1039E0003748FDF79BFE05A93648FDF797FE602096
:1039F000ADF804000120ADF806000020ADF80A0083
:103A0000ADF80C0001A92E48FDF7C5FE01A92C4810
:103A1000FDF703FF01A92A48FDF74CFF01A928483B
:103A2000FDF793FF01A92748FDF7B5FE01A9254839
:103A3000FDF7F3FE01A92348FDF73CFF01A921484A
:103A4000FDF783FF01211E48FEF7D0F901211D4833
:103A5000FEF7CCF908211A48FEF7ECFA08211848BD
:103A6000FEF7F1FA08211648FEF7FAFA0821144881
:103A7000FEF7FFFA08211348FEF7DCFA0821114887
:103A8000FEF7E1FA08210F48FEF7EAFA08210D488F
:103A9000FEF7EFFA01210A48FEF79CFA01210948D6
:103AA000FEF798FA01210648FEF794F9012105482E
:103AB000FEF790F909B030BD000801400010014048
:103AC000002C01400034014000B587B001210846B8
:103AD000FDF7ECFC01210846FDF7F5FC012104206F
:103AE000FDF7E4FC01210820FDF7E0FC0121C848B6
:103AF000FDF78BFA4FF40040ADF8000004208DF87C
:103B000003006946C348FDF7AFF90820ADF800008F
:103B100004208DF803006946BF48FDF7A5F904A805
:103B2000FEF728F90020ADF810004FF6FF70ADF851
:103B300014000020ADF81600ADF8120004A94FF0F3
:103B40008040FDF7EBFD00231A4603214FF0804033
:103B5000FEF7F3F901A8FEF720F90A20ADF80C00F2
:103B600001A94007FEF76DF801218807FEF7F8FB71
:103B7000012211469007FEF748F900214FF08040DE
:103B8000FEF7BCFB01218807FEF724F907B000BD52
:103B900000B587B001210220FDF795FC012104202A
:103BA000FDF784FCC020ADF8000004208DF8030070
:103BB00069469848FDF758F904A8FEF7DBF800209D
:103BC000ADF810004FF6FF70ADF814000020ADF80E
:103BD0001600ADF8120004A99048FDF79FFD0023E0
:103BE0001A4603218D48FEF7A8F901A8FEF7D5F87B
:103BF0000A20ADF80C0001A98848FEF722F801213F
:103C00008648FEF7ADFB012211468448FEF7FDF819
:103C100000218248FEF772FB01218048FEF7DAF8A6
:103C200007B000BD00B587B001210420FDF74BFCB3
:103C300001210820FDF73AFCC020ADF80000042067
:103C40008DF8030069467448FDF70EF904A8FEF7E5
:103C500091F80020ADF810004FF6FF70ADF8140099
:103C60000020ADF81600ADF8120004A96C48FDF76D
:103C700055FD00231A4603216948FEF75EF901A8A5
:103C8000FEF78BF80A20ADF80C0001A96448FDF797
:103C9000D8FF01216248FEF763FB0122114660480C
:103CA000FEF7B3F800215E48FEF728FB01215C48CF
:103CB000FEF790F807B000BD00B587B001210820DD
:103CC000FDF701FC01210420FDF7F0FB0320ADF816
:103CD000000004208DF8030069464E48FDF7C4F843
:103CE00004A8FEF747F80020ADF810004FF6FF706B
:103CF000ADF814000020ADF81600ADF8120004A9CC
:103D00004848FDF70BFD00231A4603214548FEF7FE
:103D100014F901A8FEF741F80A20ADF80C0001A93A
:103D20004048FDF78EFF01213E48FEF719FB0122B6
:103D300011463C48FEF769F800213A48FEF7DEFAE2
:103D400001213848FEF746F807B000BD01460229B8
:103D500006D003290DD0042914D0052924D11AE056
:103D60004FF08042928C10B200224FF080439A8430
:103D70001CE02A4A2432128810B20022274B243336
:103D80001A8013E0264A2432128810B20022244BF3
:103D900024331A800AE0234A2432128810B2002207
:103DA000204B24331A8001E0002000BF00BF704781
:103DB0004FF08040008A4FF08040008A20F00100E0
:103DC0004FF0804108827047144810300088134833
:103DD0001030008820F00100104910310880704731
:103DE0000F48103000880E481030008820F0010085
:103DF0000B491031088070470A4810300088094884
:103E00001030008820F0010006491031088070470A
:103E10000003180000080140000C014000040040AD
:103E200000080040000C004008B501210820FDF703
:103E30003DFB4FF44060ADF8000010208DF803000A
:103E400002208DF802006946F748FDF70DF808BD1D
:103E500010B5F548001D006820F47040F249091DB6
:103E600008600846006840F4405008600120EF49AF
:103E70000860EF48D0F82C0108B9002010BD0120DF
:103E8000EA49091F0860FEF7A0FC0020E849C1F8D4
:103E9000AC01E6488038006808B10020EEE7012058
:103EA000FEF793FC0020E149091F08600120E5E7C7
:103EB00010B5DD48001D006820F47040DA49091D86
:103EC00008600846006840F4405008600020D74968
:103ED000091F0860D649C1F8AC010120FEF775FC46
:103EE0000120D249091F0860D149C1F8AC01FEF791
:103EF0006CFC10BD10B50024CB48001D006820F4F8
:103F00007040C949091D08600846006840F4004037
:103F100008600120C5490860FEF757FC0120C4492C
:103F2000C1F8A801FEF751FC0AE0601CC4B2322CB3
:103F300003DDFFF7BDFF002010BD0120FEF745FCAB
:103F4000BA48803800680028EFD1B849091F0860D6
:103F50000120F1E710B50020B449091F0860B248FC
:103F6000001D006820F47040AF49091D0860084634
:103F7000006840F4405008600020AD49C1F8AC0131
:103F80000120FEF722FC0120A849091F0860FEF766
:103F90001CFC0020A649C1F8A80110BD10B50020E6
:103FA000A249091F0860A048001D006820F4704065
:103FB0009D49091D08600846006840F440500860AB
:103FC00001209B49C1F8AC01FEF7FFFB0120974996
:103FD000091F0860FEF7F9FB00209549C1F8A80108
:103FE00010BD70B504469048001D006820F4704074
:103FF0008D49091D08600846006840F4405008607B
:1040000000208A49091F0860002516E0E009874959
:1040100008606006040E0120FEF7D7FB01208449EA
:10402000C1F8A801FEF7D1FB00208049091F0860F4
:104030000120FEF7CAFB681CC5B2082DE6DB70BD87
:104040002DE9F04105460E4617469846FFF700FF5A
:1040500010B90120BDE8F0816906080EFFF7C1FF25
:10406000FFF748FF18B9FFF723FF0120F2E73046BA
:10407000FFF7B7FFFFF73EFF00240BE018F804003E
:10408000FFF7AFFFFFF736FF18B9FFF711FF00206A
:10409000E0E7641CBC42F1DBFFF70AFF0020D9E730
:1040A00070B5054600246048001D006820F470408B
:1040B0005D49091D08600846006840F4004008603A
:1040C000002617E000205949091F08600220FEF76A
:1040D0007CFB01205649C1F8A8016006040E534834
:1040E0008038006808B1601CC4B20220FEF76DFB86
:1040F000701CC6B2082EE5DB15B1FFF72BFF01E0FF
:10410000FFF74CFF204670BD2DE9F04106460F46F3
:1041100014461D46FFF79CFE10B90120BDE8F08152
:104120007106080EFFF75DFFFFF7E4FE18B9FFF711
:10413000BFFE0120F2E73846FFF753FFFFF7DAFE34
:10414000FFF786FE012101EB4601C8B2FFF749FFE8
:10415000FFF7D0FE0DE0012C04D10020FFF7A0FFF7
:10416000287003E00120FFF79BFF28706D1C601E84
:10417000C4B2002CEFD1FFF79BFE0020CEE770B554
:1041800005460E460024FFF763FE2846FFF729FF89
:10419000641CFFF7AFFE3046FFF723FF641CFFF7F8
:1041A000A9FEFFF755FE691CC8B2FFF71AFF641C91
:1041B000FFF7A0FE0020FFF773FF0446FFF778FE2D
:1041C000204670BD2DE9F0410746884615461E463B
:1041D0000024FFF73DFE3846FFF703FFFFF78AFE96
:1041E0004046FFF7FEFEFFF785FEFFF731FE791C24
:1041F000C8B2FFF7F6FEFFF77DFE00BF0DE0681EB8
:10420000A04204D00120FFF74BFF305503E000200F
:10421000FFF746FF3055601CC4B2AC42EFDBFFF73E
:1042200047FE2046BDE8F081000C0140AC812142F0
:10423000008021422DE9F04180460D4616461F467A
:104240000024FFF705FE4046FFF7CBFEFFF752FEC6
:104250002846FFF7C6FEFFF74DFE00BF06E0385DBB
:10426000FFF7BFFEFFF746FE601CC4B2B442F6DBA8
:10427000FFF71EFE0120BDE8F08170B505460E4631
:10428000144631462846FFF77AFF2070012070BDA2
:1042900037B504460D4602AB012229462046FFF7FA
:1042A000C9FF3EBD2DE9F8430746884614461D4622
:1042B000089E6A4641463846FFF7DFFF28B3601C78
:1042C000FF2101FA00F0C4F108012944491EFF2230
:1042D0000A41104300F0FF09C5F1080006FA00F09A
:1042E000C6B2C4F1070006419DF8000000EA0900CB
:1042F00000909DF80000304300909DF8002041465A
:104300003846FFF7C5FFBDE8F8830020FBE7F8B5A6
:1043100006460F4614461D466A4639463046FFF7A4
:10432000ACFF2DB10120A0409DF80010084305E02E
:104330000120A0409DF8001021EA0000C0B20090CA
:104340009DF8002039463046FFF7A2FFF8BD000077
:104350001FB501210846FDF7A9F801211020FDF73E
:10436000A5F82020ADF80C0048208DF80F0003A917
:104370001148FCF779FD05210220FCF78BFE202077
:10438000019000208DF808000C208DF80900012014
:104390008DF80A0001A8FCF787FC17208DF80000B3
:1043A00001208DF801008DF802008DF803006846A9
:1043B000FCF779F91FBD0000001001407549088025
:1043C00000BF7449091F098801F040010029F8D095
:1043D000704710B5044621466F48FEF715F900BF37
:1043E00040216D48FEF77EF90028F9D010BD10B5C8
:1043F00086B0044601210846FDF758F80121102037
:10440000FDF754F801218804FDF75DF801216348A8
:10441000FCF7FBFD4FF48060ADF8140003208DF82D
:10442000160018208DF8170005A95D48FCF71CFD43
:104430004FF40060ADF8140004208DF8170005A9B2
:104440005748FCF711FD27208DF8000000208DF85B
:10445000010001208DF802008DF803006846FCF78A
:1044600022F901940020ADF80800ADF80A00ADF87B
:104470000C00ADF810000C20ADF80E0001A9454865
:10448000001FFDF7C8FF012240F225514148001FDF
:10449000FEF759F801213F48001FFEF748F806B023
:1044A00010BD10B586B0044601213020FCF7FEFF98
:1044B00001210805FDF707F84FF48050ADF814000E
:1044C00018208DF8170003208DF8160005A9344830
:1044D000FCF7CAFC0420ADF814008DF8170005A9FC
:1044E0003048FCF7C1FC01940020ADF80800ADF89D
:1044F0000A00ADF80C00ADF810000C20ADF80E006D
:1045000001A92548FDF787FF4FF4A060FCF7C6F826
:1045100035208DF8000000208DF801008DF8020094
:1045200001208DF803006846FCF7BDF8012240F237
:1045300025511948FEF707F801211748FDF7F7FF45
:1045400006B010BD70B5012540F225511248FEF7A6
:10455000DFF8F0B11048FEF75BF844B21248134997
:104560000988445490F900005B3020B100250020F8
:104570000E49088000E00125012D0AD10B48008872
:10458000401C0A49088008460088052801DD0020F3
:10459000088070BD04480040005000401000140026
:1045A0000010014000140140161000200E100020E1
:1045B0002DE9F84304460D4616461F46DDF82090C7
:1045C0004FF0000814B10DB106B117B90120BDE8D4
:1045D000F883601EC4B2681EC5B2701EC6B2781ED3
:1045E00087B201210846FCF761FF01210820FCF792
:1045F0005DFF01214806FCF766FF01214FF4EA1038
:10460000FCF703FD4FF40070ADF8000003208DF8B7
:10461000020018208DF803006946FE48FCF724FCD0
:104620004FF48070ADF8000048208DF80300694613
:10463000F848FCF719FC0020F749086008460068B4
:1046400040F00100086008E008F101001FFA80F85E
:10465000B8F1640F01DD0220B9E7EF48001D0068E2
:1046600000F001000028EFD0EB480068EA4908603C
:104670000846006808600846006808600846006848
:1046800040F01000086008460068086008460068AE
:1046900008600020E0491C3108600846006840EAD4
:1046A000897008600846006840EA046008600846AF
:1046B000006840EA055008600846006840EA064085
:1046C00008600846006838430860D348006820F056
:1046D0000100D149086009E008F101001FFA80F8E3
:1046E0004FF6F070804501DD032070E7CA48001DD9
:1046F000006800F001000028EED1C848006840F0D2
:104700000100C6490860C5481C30006820F001005F
:10471000C2491C310860C1480C30006840F00100FB
:10472000BE490C310860BD48001D0068BB49091D29
:104730000860BA4814300068B84914310860002095
:10474000B649403108600021B44844300160B348A4
:104750001C30006840F00100B0491C310860AF48CF
:1047600000680020AD490860AB481430006840F094
:104770000200A949143108600223142200210120FB
:10478000FEF758FA002022E7F0B505460E46059CD4
:10479000A1480830006800F0806008B1002111E0F5
:1047A0009D480830006800F0006008B1012109E070
:1047B00099480830006800F0805008B1022101E0FB
:1047C000FF20F0BD00279548803800EB01100760FE
:1047D0001EB9C5F30A056D0502E025F06045ED0040
:1047E0008E48803800EB0110006828438B4F803FD3
:1047F00007EB011738608948803800EB011000682A
:1048000040EA86078548803800EB0110076083483E
:10481000803800EB0110006840EA42077F4880388A
:1048200000EB0110076003F00F037C48803800EBB9
:104830000110406820F00F077848803800EB011025
:1048400047607648803800EB011040681843734F8A
:10485000803F07EB01177860E0790006A77940EA0E
:104860000740677940EA0727207907436B4880387B
:1048700000EB0110C760E0780006A77840EA074027
:10488000677840EA072027783843644F803F07EB7A
:104890000117B8606148803800EB0110006840F0F3
:1048A00001075E48803800EB01100760084688E782
:1048B0000146002021B1012916D002293CD127E070
:1048C000554A0832126802F001021043524A083277
:1048D000126802F0020210434F4A0832126802F0D6
:1048E000806240EA126029E04B4A0832126802F006
:1048F00001021043484A0832126802F002021043D3
:10490000454A0832126802F0006240EA526015E03F
:10491000414A0832126802F0010210433E4A08324E
:10492000126802F0020210433B4A0832126802F099
:10493000805240EA926001E0052000BF00BF70474E
:10494000014629B934480C30006800F00300704774
:10495000012905D130481030006800F00300F6E767
:104960000020F4E7F0B5DDE905542C4E503E06EB8F
:104970000016366806F00406167016783EB9274E03
:10498000503E06EB00163668760D0E6006E0234EAC
:10499000503E06EB00163668F6080E601F4E503E7D
:1049A00006EB0016366806F002061E701B4E503EDF
:1049B00006EB0016766806F00F062E70174E503E76
:1049C00006EB0016B6682670144E503E06EB001635
:1049D000B668360A6670114E503E06EB0016B66891
:1049E000360CA6700D4E503E06EB0016B668360E1D
:1049F000E6700A4E503E06EB0016F6682671074E2A
:104A0000503E06EB0016F668360A6671034E503EBD
:104A100006E00000000C0140006400400066004019
:104A200006EB0016F668360CA671C74E06EB0016AC
:104A3000F668360EE67130B9C44E366846F0200688
:104A4000C24F3E6009E0012807D1C04E361D3668CE
:104A500046F02006BD4F3F1D3E60F0BD10B58AB048
:104A6000BBA103C9CDE9040102A806A907AB08AAA6
:104A7000CDE9001009A90020FFF774FF00240FE022
:104A8000072C04D102A8005DB34908700AE002A80F
:104A9000005D04A9095D884200D003E0601CC4B237
:104AA000072CEDDD00BF40F221110998884207D1A3
:104AB000A948007820B1A948029901600399416092
:104AC0000AB010BDF8B505460E4600243346002254
:104AD000114640F201600095FFF756FE074601E0DF
:104AE000601C84B23846FFF7E3FE072803D040F687
:104AF000FF708442F4DB40F6FF70844201DB01204A
:104B0000F8BD0020FCE710B586B004460020FFF792
:104B100017FF10B9002006B010BD02A803AB04AA0D
:104B200005A9CDE900040020FFF71CFF0598122815
:104B300005D19DF8100010B99DF80C0008B10020B7
:104B400002909DF80800E6E7F8B505460E460024F9
:104B500033460022114640F201700095FFF714FE23
:104B6000074601E0601C84B23846FFF7A1FE072823
:104B700003D040F6FF708442F4DB40F6FF708442BD
:104B800001DB0120F8BD0020FCE7F8B506460D4624
:104B9000002408230022114630460095FFF7F4FD5B
:104BA000074601E0601C84B23846FFF781FE072803
:104BB00003D040F6FF708442F4DB40F6FF7084427D
:104BC00001DB0120F8BD0020FCE72DE9FC5F644813
:104BD0000068002801DD002406E061480068002824
:104BE00001DA022400E001245E480068002801DDAB
:104BF000002506E05B480068002801DA022500E095
:104C0000012559480068002801DD002606E05648C5
:104C10000068002801DA022600E0012653480068F7
:104C2000002801DD002706E050480068002801DA6E
:104C3000022700E001274E494E48006808F0A0FE18
:104C40004D49009008F09CFC019008F019FE1FFAF5
:104C500080F847494948006808F092FE46490090AC
:104C600008F08EFC019008F00BFE1FFA80F9404915
:104C70004348006808F084FE3F49009008F080FC3B
:104C8000019008F0FDFD1FFA80FA3E48808800F58B
:104C900000401FFA80FB3C48007808B9012000E082
:104CA00000203949087008460078C8B94FEA282022
:104CB0003649087081F801804FEA2920887081F810
:104CC00003904FEA2A20087181F805A04FEA2B20B3
:104CD000887181F807B04FF48070FFF756FF30E01D
:104CE0001F490868002801DB014600E04142274ACD
:104CF0001170104644701B490868002801DB01460A
:104D000000E04142214A91701046C570164908687A
:104D1000002801DB014600E041421C4A11711046A7
:104D2000467112490868002801DB014600E0414253
:104D3000164A91711046C771014640F20110FFF703
:104D400024FFBDE8FC9F0000B06500400C640040FB
:104D50000A0C0F13181E25000F0F0020FF0E002055
:104D6000700E0020740E0020780E00207C0E0020B3
:104D70000000C842240F00200060EA46280F0020EF
:104D80002C0F0020D01000201C100020130F00203A
:104D900008B501210C20FCF789FB4FF40040ADF869
:104DA000000048208DF803006946F948FCF75CF8DC
:104DB0003020ADF8000010208DF8030002208DF89F
:104DC00002006946F248FCF74FF84FF48050ADF806
:104DD000000010208DF8030002208DF802006946C3
:104DE000EC48FCF741F808BD38B5044601200090B6
:104DF0000020E9494870012000902DE0BDF8000036
:104E0000204018B10120E549086002E00020E34994
:104E100008600120E24908600520FDF7D6FC00206B
:104E2000E049C1F894010520FDF7CFFC0120DD49E0
:104E3000C1F894010846D0F83C0130B1D64840781A
:104E4000BDF800100843D4494870BDF800004FF683
:104E5000FF7101EA40000090BDF80000FF28CDDDA1
:104E60001020FDF7B2FC38BD10B50020CC49091F59
:104E70000860CD490878FFF7B7FFCB494878FFF7BE
:104E8000B3FF0120C749C1F89001C3484078732897
:104E900001D1002010BD0120FCE71CB500200190CD
:104EA000012000900020BE49091F0860BE49087813
:104EB000FFF79AFFBC494878FFF796FF0220019060
:104EC00035E00120009026E00120B549086005206A
:104ED000FDF77BFC0020B349C1F894010520FDF7E4
:104EE00074FC0120AF49C1F894010846D0F83C0198
:104EF00050B1A9489DF80410405CBDF8001008436B
:104F0000A5499DF804208854BDF800004FF6FF71B4
:104F100001EA40000090BDF80000FF28D4DD102019
:104F2000FDF753FC9DF80400401CC0B201909DF8B1
:104F300004000928C5DB01209949091F08601CBD30
:104F4000002004E00021944A1154411CC8B20928F1
:104F5000F8DB704710B5FFF7F3FFFFF79EFF8E48B1
:104F6000C0788D49097940EA0120904908800024E1
:104F70000FE08F4810F81400401E012101FA00F0E4
:104F80008A490988084010B9601CC0B210BD601C75
:104F9000C4B2102CEDDB0020F8E701467E48405CEF
:104FA000704770B505460C4600207D49091F086012
:104FB0001020FDF70AFC0120FFF716FF4220FFF743
:104FC00013FF0020FFF710FF2846FFF70DFF2046D4
:104FD000FFF70AFF0020FFF707FF0020FFF704FF9D
:104FE0000020FFF701FF0020FFF7FEFE01206D49C2
:104FF000C1F890011020FDF7E8FB70BD10B500204E
:105000006749091F08601020FDF7DFFB0120FFF74B
:10501000EBFE4220FFF7E8FE0020FFF7E5FE002050
:10502000FFF7E2FE0020FFF7DFFE01205D49C1F837
:1050300090011020FDF7C9FB10BD10B500205849A4
:10504000091F08601020FDF7C0FB0120FFF7CCFE10
:105050004320FFF7C9FE0020FFF7C6FE0120FFF73F
:10506000C3FE0020FFF7C0FE0020FFF7BDFE0020BA
:10507000FFF7BAFE0020FFF7B7FE0020FFF7B4FEEF
:1050800001204849C1F890011020FDF79EFB10BD9A
:1050900010B500204249091F08600120FFF7A4FE57
:1050A0004420FFF7A1FE0020FFF79EFE0120FFF73E
:1050B0009BFE0320FFF798FE0020FFF795FE0020DF
:1050C000FFF792FE0020FFF78FFE0020FFF78CFE17
:1050D00001203449C1F890011020FDF776FB10BD86
:1050E00010B500202E49091F08601020FDF76DFB48
:1050F0000120FFF779FE4D20FFF776FE0020FFF735
:1051000073FE0020FFF770FE0120FFF76DFE012007
:105110002449C1F890011020FDF757FB10BD10B5D0
:1051200000201F49091F08601020FDF74EFB0120D9
:10513000FFF75AFE4320FFF757FE0020FFF754FE0B
:105140000020FFF751FE5A20FFF74EFE5A20FFF7CE
:105150004BFE5A20FFF748FE5A20FFF745FE5A2023
:10516000FFF742FE01200F49C1F890011020FDF722
:105170002CFB10BD10B5FFF741FFFFF73FFFFFF716
:105180003DFFFFF75AFFFFF783FFFFF7C8FF10BD92
:10519000000C01400008014036170020B0012142F8
:1051A0009481214200802142201000201E10002006
:1051B000221000202DE9F05F04460E461546FA48FD
:1051C00000680F286CD1F949284608F0D9FB8346BE
:1051D000F74908F0D5FB81463146204608F0D0F962
:1051E0008246494608F0D4FC0746F24908F0D0FC54
:1051F000804608F029FBF0490860EC49284608F091
:10520000BFFB8346EA4908F0BBFB814684F0004BB4
:105210003146584608F0B4F98246494608F0B8FCD1
:105220008046E44908F0B4FC074608F00DFBE3496A
:105230000860DE49284608F0A3FB8346DC4908F0F5
:105240009FFB814684F0004B3146584608F098F9A0
:105250008246494608F094F98046D64908F090F90C
:10526000074608F0F1FAD6490860D049284608F008
:1052700087FB8346CE4908F083FB0746314620462C
:1052800008F07EF98246394608F07AF98146C94924
:1052900008F076F9804608F0D7FACA4908605BE062
:1052A000C249284608F06CFB8246C14908F068FBF9
:1052B00080463146204608F063F98146414608F0B1
:1052C00067FC074608F0C0FABB490860B7492846A2
:1052D00008F056FB8246B64908F052FB804684F03F
:1052E000004A3146504608F04BF98146414608F0E5
:1052F0004FFC074608F0A8FAB0490860AB492846B9
:1053000008F03EFB8246AA4908F03AFB814684F049
:10531000004A3146504608F033F90746494608F03E
:105320002FF9804608F090FAA54908609F49284661
:1053300008F026FB82469E4908F022FB8046314653
:10534000204608F01DF98146414608F019F9074644
:1053500008F07AFA9B490860BDE8F09F2DE9F0411A
:1053600004460D469849284608F00AFB80469749AE
:1053700008F006FB0746214608F0FFFB064608F04A
:1053800063FA934908609049284608F0F9FA804684
:105390008E4908F0F5FA0746214608F0EEFB06466E
:1053A00008F052FA8B4908608749284608F0E8FA65
:1053B0008046864908F0E4FA0746214608F0E0F8FE
:1053C000064608F041FA844908607F49284608F0FB
:1053D000D7FA80467D4908F0D3FA0746214608F0FF
:1053E000CFF8064608F030FA7C490860BDE8F08145
:1053F00030B5002808DD4FF4E154794D2C80C0F51C
:10540000E154784D2C8007E04FF4E154754D2C8029
:1054100000F5E154724D2C8000290ADD4FF4E1546F
:105420006F4D2D1D2C80C1F5E1546E4D2D1D2C802E
:1054300009E04FF4E1546B4D2D1D2C8001F5E15432
:10544000674D2D1D2C80002A0ADD4FF4E154654D77
:1054500008352C80C2F5E154614D08352C8009E0F7
:105460004FF4E1545E4D08352C8002F5E1545D4D5A
:1054700008352C80002B0ADD4FF4E154594D0C35D2
:105480002C80C3F5E154564D0C352C8009E04FF4C7
:10549000E154534D0C352C8003F5E154514D0C353E
:1054A0002C8030BD504909684242914202DA4142A3
:1054B0004D4A11604C490968814201DD4A49086042
:1054C0004A4909684242914202DA4142474A116020
:1054D00046490968814201DD444908604449096838
:1054E0004242914202DA4142414A11604049096810
:1054F000814201DD3E4908603E49096842429142CD
:1055000002DA41423B4A11603A490968814201DDB1
:105510003849086070472DE9F05F04460D46601B6E
:10552000354908600846006808F0CAF983463348E0
:105530000168584608F024FA80462F490968304A25
:105540001268881A08F0BCF983462E48016858464C
:1055500008F016FA8146414608F012F807462A4834
:10556000006808F0ADF98246394608F009F80646A9
:1055700008F06AF92449086008460068B0F5E15F60
:1055800002DD4FF4E15008601F48006810F5E15F4C
:1055900002DA1E481C49086017480068184908606C
:1055A00019480068BDE8F09F940F00201058393E5C
:1055B0000000A04000002042E80E0020EC0E002079
:1055C000F00E0020F40E00205C8FC23D0000204150
:1055D000900E0020940E0020980E00209C0E0020BB
:1055E000342C014034340140D80E0020DC0E002061
:1055F000E00E0020E40E002080100020B80E0020F5
:1056000088100020B40E002084100020E0E3FFFF8B
:105610002DE9F05F04460D46601BFE490860084610
:10562000006808F04DF98346FB480168584608F0C9
:10563000A7F98046F7490968F84A1268881A08F0FD
:105640003FF98346F6480168584608F099F98146C3
:10565000414607F095FF0746F248006808F030F928
:105660008246394607F08CFF064608F0EDF8ED4912
:10567000086008460068B0F5E15F02DD4FF4E150D4
:105680000860E848006810F5E15F02DAE648E5499D
:105690000860E0480068E1490860E2480068BDE849
:1056A000F09F2DE9F05F04460D46601BDF4908605E
:1056B0000846006808F004F98346D7480168584650
:1056C00008F05EF98046D9490968D94A1268881AF3
:1056D00008F0F6F88346D2480168584608F050F9B9
:1056E0008146414607F04CFF0746D248006808F063
:1056F000E7F88246394607F043FF064608F0A4F86B
:10570000CC49086008460068B0F5E15F02DD4FF45F
:10571000E1500860C748006810F5E15F02DAC2484E
:10572000C4490860C1480068C1490860C1480068B0
:10573000BDE8F09F2DE9F05F04460D46601BBE49B1
:1057400008600846006808F0BBF88346B248016864
:10575000584608F015F98046B7490968B74A1268F3
:10576000881A08F0ADF88346AD480168584608F03D
:1057700007F98146414607F003FF0746B048006835
:1057800008F09EF88246394607F0FAFE064608F011
:105790005BF8AB49086008460068B0F5E15F02DDE0
:1057A0004FF4E1500860A648006810F5E15F02DAA6
:1057B0009D48A3490860A0480068A0490860A04827
:1057C0000068BDE8F09F2DE9F04104460D469D4973
:1057D000284608F0A1F900D29B4D9C49284608F0C4
:1057E0009BF800D29A4D2946204607F037FF06461F
:1057F000002108F091F811D8284607F095FE21F015
:10580000004106460022934B07F07CFC06D2294655
:10581000204607F0B5FE904908600EE02946204674
:1058200008F0B6F907468D48006880F00046394612
:10583000304608F0A5F8884908602946204608F057
:10584000A7F906464FF0824108F066F909D92946C2
:10585000204608F09DF906464FF0414108F05CF8FB
:105860000ED87D4801687E48006808F089F8064631
:105870007C480168304607F083FE7A49086002E000
:105880000020784908607848006880F00046774832
:105890000168304608F074F8754908607548016879
:1058A000204608F075F9714908606E4801686A4839
:1058B000006807F065FE06466D480168304607F04F
:1058C0005FFE6D4908606B48046008460068BDE8EB
:1058D000F08170B504460D46601B07F0F1FF0646E7
:1058E00066480168304608F04BF865490860601B5F
:1058F000032803DA601B10F1030F0EDC6048016817
:105900006048006808F03CF806465F480168304689
:1059100007F036FE5C49086002E000205A49086042
:105920005A48006880F0004659480168304608F03F
:1059300027F858490860204607F0C2FF0646564837
:105940000168304608F024F9514908604E48016862
:105950004B48006807F014FE06464E480168304682
:1059600007F00EFE4D490860204607F0A9FF4A499E
:1059700008604A48006870BD70B504460D46281B93
:1059800007F09EFF06463D480168304607F0F8FFE5
:1059900043490860601B032803DA601B10F1030F02
:1059A0000EDC3F4801683748006807F0E9FF06460B
:1059B00035480168304607F0E3FD3349086002E0EE
:1059C0000020314908603148006880F000463048C6
:1059D0000168304607F0D4FF2E490860204607F0E2
:1059E0006FFF06462C480168304608F0D1F8284978
:1059F0000860254801682A48006807F0C1FD06468E
:105A000024480168304607F0BBFD2649086020465F
:105A10004AE0000074100020B80E00207C10002026
:105A2000B40E002078100020E0E3FFFF6810002093
:105A3000701000206C1000205C100020641000200A
:105A4000601000200000334300002FC3000033C368
:105A500000002F4300005940440F0020BC0E0020DE
:105A6000C00E0020480F0020C40E0020540F00205C
:105A70004C0F0020500F0020400F0020A80E0020E7
:105A80005C0F0020AC0E0020600F0020B00E002044
:105A9000680F0020640F00206C0F0020740F00209E
:105AA000580F0020700F002007F00AFFFE49086021
:105AB000FE48006870BD2DE9F04F8FB04FF07C506C
:105AC0000E9001200D904FF0020AF948007800284E
:105AD00079D1F8480078002876D1F7480078002876
